{
  "_format": "hh-sol-artifact-1",
  "contractName": "WavePortal",
  "sourceName": "contracts/WavePortal.sol",
  "abi": [
    {
      "inputs": [],
      "stateMutability": "payable",
      "type": "constructor"
    },
    {
      "anonymous": false,
      "inputs": [
        {
          "indexed": true,
          "internalType": "address",
          "name": "from",
          "type": "address"
        },
        {
          "indexed": false,
          "internalType": "uint256",
          "name": "timestamp",
          "type": "uint256"
        }
      ],
      "name": "NewWave",
      "type": "event"
    },
    {
      "inputs": [
        {
          "internalType": "address",
          "name": "sender",
          "type": "address"
        }
      ],
      "name": "getAccountWaves",
      "outputs": [
        {
          "internalType": "uint256",
          "name": "",
          "type": "uint256"
        }
      ],
      "stateMutability": "view",
      "type": "function"
    },
    {
      "inputs": [],
      "name": "getAllWaves",
      "outputs": [
        {
          "components": [
            {
              "internalType": "address",
              "name": "waver",
              "type": "address"
            },
            {
              "internalType": "uint256",
              "name": "timestamp",
              "type": "uint256"
            }
          ],
          "internalType": "struct WavePortal.Wave[]",
          "name": "",
          "type": "tuple[]"
        }
      ],
      "stateMutability": "view",
      "type": "function"
    },
    {
      "inputs": [],
      "name": "getTotalAccounts",
      "outputs": [
        {
          "internalType": "uint256",
          "name": "",
          "type": "uint256"
        }
      ],
      "stateMutability": "view",
      "type": "function"
    },
    {
      "inputs": [],
      "name": "getTotalWaves",
      "outputs": [
        {
          "internalType": "uint256",
          "name": "",
          "type": "uint256"
        }
      ],
      "stateMutability": "view",
      "type": "function"
    },
    {
      "inputs": [
        {
          "internalType": "address",
          "name": "",
          "type": "address"
        }
      ],
      "name": "lastWavedAt",
      "outputs": [
        {
          "internalType": "uint256",
          "name": "",
          "type": "uint256"
        }
      ],
      "stateMutability": "view",
      "type": "function"
    },
    {
      "inputs": [],
      "name": "wave",
      "outputs": [],
      "stateMutability": "nonpayable",
      "type": "function"
    },
    {
      "inputs": [
        {
          "internalType": "address",
          "name": "",
          "type": "address"
        }
      ],
      "name": "waveAmount",
      "outputs": [
        {
          "internalType": "uint256",
          "name": "",
          "type": "uint256"
        }
      ],
      "stateMutability": "view",
      "type": "function"
    }
  ],
  "bytecode": "0x60806040526200004f6040518060400160405280601981526020017f57652068617665206265656e20636f6e737472756374656421000000000000008152506200007760201b620007cb1760201c565b606444426200005f9190620001c4565b6200006b919062000261565b60018190555062000308565b62000117816040516024016200008e919062000184565b6040516020818303038152906040527f41304fac000000000000000000000000000000000000000000000000000000007bffffffffffffffffffffffffffffffffffffffffffffffffffffffff19166020820180517bffffffffffffffffffffffffffffffffffffffffffffffffffffffff83818316178352505050506200011a60201b60201c565b50565b60008151905060006a636f6e736f6c652e6c6f679050602083016000808483855afa5050505050565b60006200015082620001a8565b6200015c8185620001b3565b93506200016e8185602086016200022b565b6200017981620002f7565b840191505092915050565b60006020820190508181036000830152620001a0818462000143565b905092915050565b600081519050919050565b600082825260208201905092915050565b6000620001d18262000221565b9150620001de8362000221565b9250827fffffffffffffffffffffffffffffffffffffffffffffffffffffffffffffffff0382111562000216576200021562000299565b5b828201905092915050565b6000819050919050565b60005b838110156200024b5780820151818401526020810190506200022e565b838111156200025b576000848401525b50505050565b60006200026e8262000221565b91506200027b8362000221565b9250826200028e576200028d620002c8565b5b828206905092915050565b7f4e487b7100000000000000000000000000000000000000000000000000000000600052601160045260246000fd5b7f4e487b7100000000000000000000000000000000000000000000000000000000600052601260045260246000fd5b6000601f19601f8301169050919050565b610fb980620003186000396000f3fe608060405234801561001057600080fd5b506004361061007d5760003560e01c8063a42a46631161005b578063a42a4663146100da578063a555a4511461010a578063bd43a9081461013a578063da6841aa146101585761007d565b80633ade00a2146100825780636fe15b44146100b25780639a2cdc08146100bc575b600080fd5b61009c600480360381019061009791906109da565b610176565b6040516100a99190610cc2565b60405180910390f35b6100ba61018e565b005b6100c4610698565b6040516100d19190610cc2565b60405180910390f35b6100f460048036038101906100ef91906109da565b6106a1565b6040516101019190610cc2565b60405180910390f35b610124600480360381019061011f91906109da565b6106b9565b6040516101319190610cc2565b60405180910390f35b610142610702565b60405161014f9190610bbe565b60405180910390f35b6101606107c1565b60405161016d9190610cc2565b60405180910390f35b60026020528060005260406000206000915090505481565b42601e600460003373ffffffffffffffffffffffffffffffffffffffff1673ffffffffffffffffffffffffffffffffffffffff168152602001908152602001600020546101db9190610d3d565b1061021b576040517f08c379a000000000000000000000000000000000000000000000000000000000815260040161021290610c82565b60405180910390fd5b42600460003373ffffffffffffffffffffffffffffffffffffffff1673ffffffffffffffffffffffffffffffffffffffff1681526020019081526020016000208190555060016000808282546102719190610d3d565b925050819055506102b76040518060400160405280601d81526020017f2573206861732077617665642077697468206d6573736167652025732100000081525033610864565b6000600260003373ffffffffffffffffffffffffffffffffffffffff1673ffffffffffffffffffffffffffffffffffffffff1681526020019081526020016000205411156103045761031f565b6001600360008282546103179190610d3d565b925050819055505b61035e6040518060400160405280600d81526020017f626c6f636b206e756d3a2025730000000000000000000000000000000000000081525043610900565b600560405180604001604052803373ffffffffffffffffffffffffffffffffffffffff16815260200142815250908060018154018082558091505060019003906000526020600020906002020160009091909190915060008201518160000160006101000a81548173ffffffffffffffffffffffffffffffffffffffff021916908373ffffffffffffffffffffffffffffffffffffffff160217905550602082015181600101555050606460015442446104189190610d3d565b6104229190610d3d565b61042c9190610e02565b6001819055506104736040518060400160405280601681526020017f52616e646f6d20232067656e6572617465643a20256400000000000000000000815250600154610900565b6014600154116105b9576104bc6040518060400160405280600781526020017f257320776f6e210000000000000000000000000000000000000000000000000081525033610864565b6000655af3107a400090504781111561050a576040517f08c379a000000000000000000000000000000000000000000000000000000000815260040161050190610c62565b60405180910390fd5b60003373ffffffffffffffffffffffffffffffffffffffff168260405161053090610ba9565b60006040518083038185875af1925050503d806000811461056d576040519150601f19603f3d011682016040523d82523d6000602084013e610572565b606091505b50509050806105b6576040517f08c379a00000000000000000000000000000000000000000000000000000000081526004016105ad90610ca2565b60405180910390fd5b50505b3373ffffffffffffffffffffffffffffffffffffffff167fd4039eae27a8bdb2161befb9f8627b7c1427c2515e32d699b7dc252416e719cd426040516105ff9190610cc2565b60405180910390a26001600260003373ffffffffffffffffffffffffffffffffffffffff1673ffffffffffffffffffffffffffffffffffffffff168152602001908152602001600020546106539190610d3d565b600260003373ffffffffffffffffffffffffffffffffffffffff1673ffffffffffffffffffffffffffffffffffffffff16815260200190815260200160002081905550565b60008054905090565b60046020528060005260406000206000915090505481565b6000600260008373ffffffffffffffffffffffffffffffffffffffff1673ffffffffffffffffffffffffffffffffffffffff168152602001908152602001600020549050919050565b60606005805480602002602001604051908101604052809291908181526020016000905b828210156107b857838290600052602060002090600202016040518060400160405290816000820160009054906101000a900473ffffffffffffffffffffffffffffffffffffffff1673ffffffffffffffffffffffffffffffffffffffff1673ffffffffffffffffffffffffffffffffffffffff16815260200160018201548152505081526020019060010190610726565b50505050905090565b6000600354905090565b610861816040516024016107df9190610be0565b6040516020818303038152906040527f41304fac000000000000000000000000000000000000000000000000000000007bffffffffffffffffffffffffffffffffffffffffffffffffffffffff19166020820180517bffffffffffffffffffffffffffffffffffffffffffffffffffffffff838183161783525050505061099c565b50565b6108fc828260405160240161087a929190610c02565b6040516020818303038152906040527f319af333000000000000000000000000000000000000000000000000000000007bffffffffffffffffffffffffffffffffffffffffffffffffffffffff19166020820180517bffffffffffffffffffffffffffffffffffffffffffffffffffffffff838183161783525050505061099c565b5050565b6109988282604051602401610916929190610c32565b6040516020818303038152906040527f9710a9d0000000000000000000000000000000000000000000000000000000007bffffffffffffffffffffffffffffffffffffffffffffffffffffffff19166020820180517bffffffffffffffffffffffffffffffffffffffffffffffffffffffff838183161783525050505061099c565b5050565b60008151905060006a636f6e736f6c652e6c6f679050602083016000808483855afa5050505050565b6000813590506109d481610f6c565b92915050565b6000602082840312156109ec57600080fd5b60006109fa848285016109c5565b91505092915050565b6000610a0f8383610b5c565b60408301905092915050565b610a2481610d93565b82525050565b610a3381610d93565b82525050565b6000610a4482610ced565b610a4e8185610d10565b9350610a5983610cdd565b8060005b83811015610a8a578151610a718882610a03565b9750610a7c83610d03565b925050600181019050610a5d565b5085935050505092915050565b6000610aa282610cf8565b610aac8185610d2c565b9350610abc818560208601610dcf565b610ac581610e91565b840191505092915050565b6000610add603483610d2c565b9150610ae882610ea2565b604082019050919050565b6000610b00600f83610d2c565b9150610b0b82610ef1565b602082019050919050565b6000610b23602783610d2c565b9150610b2e82610f1a565b604082019050919050565b6000610b46600083610d21565b9150610b5182610f69565b600082019050919050565b604082016000820151610b726000850182610a1b565b506020820151610b856020850182610b8b565b50505050565b610b9481610dc5565b82525050565b610ba381610dc5565b82525050565b6000610bb482610b39565b9150819050919050565b60006020820190508181036000830152610bd88184610a39565b905092915050565b60006020820190508181036000830152610bfa8184610a97565b905092915050565b60006040820190508181036000830152610c1c8185610a97565b9050610c2b6020830184610a2a565b9392505050565b60006040820190508181036000830152610c4c8185610a97565b9050610c5b6020830184610b9a565b9392505050565b60006020820190508181036000830152610c7b81610ad0565b9050919050565b60006020820190508181036000830152610c9b81610af3565b9050919050565b60006020820190508181036000830152610cbb81610b16565b9050919050565b6000602082019050610cd76000830184610b9a565b92915050565b6000819050602082019050919050565b600081519050919050565b600081519050919050565b6000602082019050919050565b600082825260208201905092915050565b600081905092915050565b600082825260208201905092915050565b6000610d4882610dc5565b9150610d5383610dc5565b9250827fffffffffffffffffffffffffffffffffffffffffffffffffffffffffffffffff03821115610d8857610d87610e33565b5b828201905092915050565b6000610d9e82610da5565b9050919050565b600073ffffffffffffffffffffffffffffffffffffffff82169050919050565b6000819050919050565b60005b83811015610ded578082015181840152602081019050610dd2565b83811115610dfc576000848401525b50505050565b6000610e0d82610dc5565b9150610e1883610dc5565b925082610e2857610e27610e62565b5b828206905092915050565b7f4e487b7100000000000000000000000000000000000000000000000000000000600052601160045260246000fd5b7f4e487b7100000000000000000000000000000000000000000000000000000000600052601260045260246000fd5b6000601f19601f8301169050919050565b7f547279696e6720746f207769746864726177206d6f7265206d6f6e657920746860008201527f616e2074686520636f6e7472616374206861732e000000000000000000000000602082015250565b7f57616974203330207365636f6e64730000000000000000000000000000000000600082015250565b7f4661696c656420746f207769746864726177206d6f6e65792066726f6d20636f60008201527f6e74726163742e00000000000000000000000000000000000000000000000000602082015250565b50565b610f7581610d93565b8114610f8057600080fd5b5056fea26469706673582212202acb01805573d7782c3c28119a723c12dcf82ded7595f61ae81658c0114f837164736f6c63430008040033",
  "linkReferences": {},
  "deployedLinkReferences": {}
}